:4000000000100020110000002D0300002D03000010B500F093F9C04670B5114C23688025ED022B432360302000F01AFC0D4A0E4B1A6010220D4B1A60802212060C4B1A6037
:4000400025600C4A0C4B1A600C49092000F0AEFB092000F095FB0022094B1A6070BDC04600010B400600008004010B400802024008010B401D00008000000240710A0000D5
:400080000C020B4010B572B600240FE017486200131959000B00411889881A5AC31858880004104300F03CF90134E4B2012CEDD9EE2212020E4B1A60EE220E4B1A6099222E
:4000C00012040D4B1A600D4A117806230B43DBB21370D82212010A4B1A600322094B1A602132094B1A60FFF797FF10BDF41000000C0001401000014030500F4000700F4038
:4001000008030440000404400804044010B5064C2378002B07D1054B002B02D0044800E000BF0123237010BD4001002000000000F0100000084B10B5002B03D00749084850
:4001400000E000BF07480368002B00D110BD064B002BFBD09847F9E70000000044010020F0100000C00000200000000010B582B062B600F077F802230093DE330022002198
:40018000002000F08BF8FA20800000F047FB002407E02100002000F09DF8012000F03EFB0134632CF5DD632407E02100002000F091F8012000F032FB013C002CF5DADAE7D0
:4001C000272070470020704710B5431C642B06DC0303181A642100F06BFE273007E00303181A642100F064FE024B9C466044C0B210BDC04627F0FFFF10B5431C642B06DC70
:400200000303181A642100F053FE273005E00303181A642100F04CFE27300012C0B210BD70B505000C0000F0BDF9002302222900200000F029FA00280DD100F09BF9830752
:40024000FBD500F097F9830507D400F08DF9022805D0FF2004E0FF2002E0FF2000E0002070BDC04600B583B000F0C2F800F0B4F801A800230370803343704021FFF7D0FF07
:4002800003B000BD00B583B001AB1870597040211800FFF7C5FF03B000BDC046F8B517001D0006AB1E788000C4B2A01DC0B2FFF7E9FFE01DC0B23900FFF7E4FF200008303C
:4002C000C0B22900FFF7DEFF0934E0B23100FFF7D9FFF8BD70B50D008000C4B2A61DF6B2FFF76EFF01003000FFF7CCFFFFF76AFF0100E31DD8B2FFF7C5FF2800FFF764FF00
:40030000010023000833D8B2FFF7BCFF2800FFF773FF01000934E0B2FFF7B4FF70BDC04610B50A00002100F0DBFE10BD10B500F0ABFE03680C2B00D1FEE7FEE770B50F4E44
:400340000F4D13E029686B68AC68002202E001C901C30432A242FAD1E868002202E0002102C304328242FAD11035013E002EE9D100F090FEFFF7FAFEFEE7C046010000007C
:400380005411000010B500230AE0032B03D89A000949505800E009489900094A885001332F2BF2D9FFF76EFE8022D205116801230B43136010BDC046000000002D030000DF
:4003C0000000002010B50A2000F0DAF910BDC04610B500F01DF810BD10B5044A1368802109060B431360FFF7EDFF10BD0000064010B5064B1B78002B04D1FFF7E9FF012223
:40040000024B1A70FFF7E8FF10BDC0465C01002010B51B4A11680C230B4313600024194B1C60194A194B1A60194B1A4A13601A4A14601A4A14601A4A13601A4B1C600A2013
:4004400000F0A8F903210A2000F0C2F916490A2000F0ACF9154B1C60154B1C60154B1C60154B1C60154B1C60154B1C601022154B1A70154B1C80154B1C60154B1C6010BD0F
:4004800070000640000006407708008060000640070100800003064004030640100306400002064004020640750B0000C80E0640880E0640480F0640080F0640C80F064001
:4004C000880F06408401002094010020A40100208C01002010B5144A13685B005B081360002312490B6012490B601248046812492140016011490B6011490B601149124BB1
:4005000019601249124B19601249134B19601349134B19601021134B19701368802109060B43136010BDC04600000640680006406C00064060000640FF5CFFFF880F064053
:40054000C80F0640F3070000800F0640ED0F0000C00F0640FF0F0000400F064017030000000F064084010020014B18687047C0468C01002010B50A2000F00CF9074B1C88B7
:40058000A2B21400064B1B789B0602D504231A4394B20A2000F0F4F8200010BD940100208401002010B50A2000F0F4F8044B1C88A4B200221A800A2000F0E2F8200010BDAF
:4005C0009401002070B52B4B1B6820251D402A4C03E0012000F03AF9013C00F09BFA002801D1002CF5D1002C43D0002000F09AFA224A13680F218B431360214A13685B00BF
:400600005B081360002D18D0002000F08BFA0A2000F01CF9012000F085FA0A2000F016F9154C03E0012000F011F9013C00F086FA002803D1002CF5D100E00F4C002C08D019
:40064000002000F06FFA0A2000F000F901220D4B1A600B4A1368802109060B43136007490B680F229343013A13430B60012000F059FA70BD64000640204E000010000140F8
:400680000000064068000640F0B583B001900C0017001D00002917D02A4B1B78102B08D10A2000F077F8284B1B68DB070ED508260FE0244B1B78602B0AD1244A1388082176
:4006C0008B431380002604E0042602E0002600E00426002E2FD128221A4B1A7000231C4A13601C4A13601C4B1F601C4B1C60EAB21B4B1A70019B5C00FF231C40134A138854
:4007000002218B4313804023164A13601649174A11601421FF31164A1160164A1360EB0704D5FFF74FFF144B1C6004E0124B1C600222124B1A600A2000F022F8300003B00C
:40074000F0BDC046840100206400064094010020880100208C01002090010020A80100209C010020800F064017030000000F0640080F0640880F0640400206406800064081
:400780001F2318401E3B8340014A13607047C04600E100E01F2318401E3B8340014A13607047C04680E100E001BE704770B504000D001F2802D90020FFF7F6FF1034A40014
:4007C00080239B059C4664442068256070BDC04670B504000E00032902D90020FFF7E4FF1F2C02D90020FFF7DFFF03252540ED00063500F0B7F9A408A400074B9C4664441A
:4008000021680323AB4099430B003100A9401943216000F0ABF970BD00E400E010B5040006E0084B586800F093F9074B9C46644480231B029C42F4D8024B9868604300F057
:4008400087F910BDC40000200080FFFF10B5034B1B7B584300F07CF910BDC046C4000020F0B557464E46C0B483B0040000F07AF90190E71E2D2F74D83F4B1B78DBB29C42BF
:4008800008D83E4B1B78DBB29A463D4B1B78DBB2994631E03B4B1B78DBB29C4208D83A4B1B78DBB29A46394B1B78DBB2994623E0374B1B78DBB29C4208D8364B1B78DBB2C7
:4008C0009A46354B1B78DBB2994615E0334B1B78DBB29C4208D8324B1B78DBB29A46314B1B78DBB2994607E02F4B1B78DBB29A462E4B1B78DBB299462D4BDE5D2F2E09D985
:400900002A2C07D919222B4B1A60052000F020F9192503E0274B1D683F231D40B54206D9234BDA5D234B1A60052000F011F91F4B9C4664442378DBB21F4A13601F4B5246D5
:400940001A601F4B4A461A600520FFF77FFFB5420AD2174BDA5D174B1A60052000F0F8F802E00020FFF720FF019800F0FFF803B00CBC91469A46F0BDC0F1FF0FC1F1FF0FAE
:40098000C2F1FF0FC3F1FF0FC4F1FF0FC5F1FF0FC6F1FF0FC7F1FF0FC8F1FF0FC9F1FF0FCAF1FF0FCBF1FF0FCCF1FF0FCDF1FF0F001100002CFF0B4028FF0B401CFF0B408A
:4009C00020FF0B40034B1868C0231B02184000D00120704700010B4010B500F0C3F8044A1368C02109020B43136000F0BFF810BD00010B4010B500F0B5F808490A68084B55
:400A00001A408024E40122430A600A6813408022120213430B6000F0A9F810BD00010B40FF3FFFFF70B5050000F09CF80400FFF7C9FF002803D0FFF7DDFF012100E0002182
:400A400008482840084A1568084B2B40184310601368012901D1FFF7BFFF200000F086F870BDC0460404040010020B40FBFBFBFF10B5244B1B685B0715D5234B1B685B07CB
:400A80000ED5224BD969042001401F4C22688A432260DA698243DA611B69002B00D098470420FFF7BFFF174B1B685B0518D5164B1B685B0510D5154BD9698022D2001140C0
:400AC000114802688A430260D969114A0A40DA615B69002B00D098478020C000FFF7A2FF084B1B685B030CD5074B1B685B0304D5064B9B69002B00D098478020C002FFF7A5
:400B000091FF10BD10020B40D800002064010020FFFBFFFF024B1868400801231840704704040440044A1368DBB201218B430840184310607047C04600040440024B1B68C4
:400B4000012018407047C04604040440000000000230800804D0C0460138FDD1C046C046C0467047EFF3108072B6704780F310887047C04610B5AD4B1B68002B00D098475C
:400B8000AB4B1B68DB0702D50022AA4B1A60AA4B1B789B0628D5A94B1B68DB0507D5A84A1188C0239B000B431380012300E00023A24A1268D20706D5A14A118890239B001C
:400BC0000B4313800123002B0FD09B4A1278D20701D5012200E002229949088802430A800021954A117000E00023934A1278920600D414E1914A1268D20611D51022914BF3
:400C00001A608D4B1B78DB0701D5012300E002238B4A11880B4313801022874B1A7004E1854A1278120720D5844A126892070AD50222844B1A60824A118888239B000B439F
:400C40001380012311E07C4A1278D20703D52521794A117009E02421774A11707A4A1268002A02D01439794A1160734A1278520700D4ABE0704A1278D20749D5744A1268A4
:400C8000120727D5734A1268734909680F240C40724909686418141B082C09D8002C16D16F4A11686F4B0B401360012308340EE008240CE0694A11686B48006841186B48DA
:400CC0000068C0B20870116801311160013C002CF0D119E05E4A1268520715D55F4A116861480068411861480068C0B208701168013111601168574A1268914203D20421FA
:400D00005B4A116000E001235A495B4A11605DE04A4A1268920726D502224A4B1A6057490B680D321A40096880231B020B4000D001239B18524A1168CB1A13601268514B7C
:400D40001A603F4A118884239B000B4313804E4B1A68802149020A431A6019684B4A0A401A60012332E04A4A1268D20612D424E0434A1168344A1268914211D2404A11684F
:400D80004448006841180978C9B243480160116801311160394A12680F210A40082AE7D1374A1168284A1268914202D14021274A11603A493A4A116008E0354A1268520601
:400DC00004D52F4B1A682F4B1A600123002B2CD0234A1168234B0B4013600023314A13601A4A1360304B1B789B070ED5124B1B78DB0701D5092300E00A23114A11880B432F
:400E0000138060220C4B1A700FE0284B1B689B0601D5182200E01022154B1A6005E0064B1B78DB0601D4FFF755FB10BD600100208C0E0640880E0640840100200C0F064065
:400E400094010020000F064090010020880F0640CC0F0640A001002008030640A401002060000640FFFEFFFF980100204003064068000640ED0F0000C00F064008020640F0
:400E8000880100208C01002004020640FFFFFEFF8C0F0640A801002040020640F3070000800F0640C80F06409C0100206400064003460B437FD4002243088B4274D3030999
:400EC0008B425FD3030A8B4244D3030B8B4228D3030C8B420DD3FF22090212BA030C8B4202D31212090265D0030B8B4219D300E0090AC30B8B4201D3CB03C01A5241830B71
:400F00008B4201D38B03C01A5241430B8B4201D34B03C01A5241030B8B4201D30B03C01A5241C30A8B4201D3CB02C01A5241830A8B4201D38B02C01A5241430A8B4201D383
:400F40004B02C01A5241030A8B4201D30B02C01A5241CDD2C3098B4201D3CB01C01A524183098B4201D38B01C01A524143098B4201D34B01C01A524103098B4201D30B01C5
:400F8000C01A5241C3088B4201D3CB00C01A524183088B4201D38B00C01A524143088B4201D34B00C01A5241411A00D201465241104670475DE0CA0F00D04942031000D3ED
:400FC0004042534000229C4603098B422DD3030A8B4212D3FC22890112BA030A8B420CD3890192118B4208D3890192118B4204D389013AD0921100E08909C3098B4201D357
:40100000CB01C01A524183098B4201D38B01C01A524143098B4201D34B01C01A524103098B4201D30B01C01A5241C3088B4201D3CB00C01A524183088B4201D38B00C01A50
:401040005241D9D243088B4201D34B00C01A5241411A00D20146634652415B10104601D34042002B00D54942704763465B1000D3404201B5002000F005F802BD0029F8D0A9
:4010800016E770477047C046014B18687047C0463C0100200E4B70B500251E000D4CE41AA410A54204D0AB00F35898470135F8E700F03EF8084B00251E00084CE41AA410A6
:4010C000A54204D0AB00F35898470135F8E770BD3C1100003C1100003C1100004411000003008218934202D019700133FAE770470000000000300F40000400400F40000433
:40110000030405060708090A0B0C0E0F101112131415161718191B1C1D1E1F2021222325262728292A2B2E2F3031323334354300F8B5C046F8BC08BC9E4670473501000080
:4011400085030000F8B5C046F8BC08BC9E4670470D01000068110000C000002080000000700000000000000000000000010000000000C05D80BB000030000000006CDC02F7
:401180000404040000000000000000000000000000000000000000000000000000000000000000002E110000000000000000000000000000000000000000000000000000E4
:4011C000000000000000000000000000000000000000000000000000000000000000000000000000DC000020000000000000000000000000000000000000000000000000F3
:4012000000000000000000000000000000000000000000000000000000000000000000000000000000000000000000000000000000000000000000000000000000000000AE
:40124000000000000000000000000000000000000000000000000000000000000000000000000000000000000000000000000000000000000000000000000000000000006E
:40128000000000000000000000000000000000000000000000000000000000000000000000000000000000000000000000000000000000000000000000000000000000002E
:4012C00000000000000000000000000000000000000000000000000000000000000000000000000000000000000000000000000000000000000000000000000000000000EE
:0200000490303A
:020000009D075A
:0200000490402A
:200000000000000000000000000000000000000000000000000000000000000000000000E0
:0200000490501A
:0C000000000204C81193110104CDAE9A57
:0200000490600A
:0100000001FE
:00000001FF